{
  "address": "0xC3A93EEb8612B49D9A0D396a9D50568de50578cb",
  "abi": [
    {
      "inputs": [
        {
          "internalType": "address",
          "name": "vrfCoordinator",
          "type": "address"
        },
        {
          "internalType": "bytes32",
          "name": "keyHash",
          "type": "bytes32"
        },
        {
          "internalType": "uint256",
          "name": "subscriptionId",
          "type": "uint256"
        },
        {
          "internalType": "uint32",
          "name": "callbackGasLimit",
          "type": "uint32"
        },
        {
          "internalType": "string[3]",
          "name": "dogTokenUris",
          "type": "string[3]"
        },
        {
          "internalType": "uint256",
          "name": "mintFee",
          "type": "uint256"
        }
      ],
      "stateMutability": "nonpayable",
      "type": "constructor"
    },
    {
      "inputs": [
        {
          "internalType": "address",
          "name": "have",
          "type": "address"
        },
        {
          "internalType": "address",
          "name": "want",
          "type": "address"
        }
      ],
      "name": "OnlyCoordinatorCanFulfill",
      "type": "error"
    },
    {
      "inputs": [
        {
          "internalType": "address",
          "name": "have",
          "type": "address"
        },
        {
          "internalType": "address",
          "name": "owner",
          "type": "address"
        },
        {
          "internalType": "address",
          "name": "coordinator",
          "type": "address"
        }
      ],
      "name": "OnlyOwnerOrCoordinator",
      "type": "error"
    },
    {
      "inputs": [],
      "name": "RandomIpfsNft__NeedMoreEth",
      "type": "error"
    },
    {
      "inputs": [],
      "name": "RandomIpfsNft__RangeOutOfBound",
      "type": "error"
    },
    {
      "inputs": [],
      "name": "RandomIpfsNft__TransferFail",
      "type": "error"
    },
    {
      "inputs": [],
      "name": "ZeroAddress",
      "type": "error"
    },
    {
      "anonymous": false,
      "inputs": [
        {
          "indexed": true,
          "internalType": "address",
          "name": "owner",
          "type": "address"
        },
        {
          "indexed": true,
          "internalType": "address",
          "name": "approved",
          "type": "address"
        },
        {
          "indexed": true,
          "internalType": "uint256",
          "name": "tokenId",
          "type": "uint256"
        }
      ],
      "name": "Approval",
      "type": "event"
    },
    {
      "anonymous": false,
      "inputs": [
        {
          "indexed": true,
          "internalType": "address",
          "name": "owner",
          "type": "address"
        },
        {
          "indexed": true,
          "internalType": "address",
          "name": "operator",
          "type": "address"
        },
        {
          "indexed": false,
          "internalType": "bool",
          "name": "approved",
          "type": "bool"
        }
      ],
      "name": "ApprovalForAll",
      "type": "event"
    },
    {
      "anonymous": false,
      "inputs": [
        {
          "indexed": false,
          "internalType": "uint256",
          "name": "_fromTokenId",
          "type": "uint256"
        },
        {
          "indexed": false,
          "internalType": "uint256",
          "name": "_toTokenId",
          "type": "uint256"
        }
      ],
      "name": "BatchMetadataUpdate",
      "type": "event"
    },
    {
      "anonymous": false,
      "inputs": [
        {
          "indexed": false,
          "internalType": "address",
          "name": "vrfCoordinator",
          "type": "address"
        }
      ],
      "name": "CoordinatorSet",
      "type": "event"
    },
    {
      "anonymous": false,
      "inputs": [
        {
          "indexed": false,
          "internalType": "uint256",
          "name": "_tokenId",
          "type": "uint256"
        }
      ],
      "name": "MetadataUpdate",
      "type": "event"
    },
    {
      "anonymous": false,
      "inputs": [
        {
          "indexed": true,
          "internalType": "address",
          "name": "from",
          "type": "address"
        },
        {
          "indexed": true,
          "internalType": "address",
          "name": "to",
          "type": "address"
        }
      ],
      "name": "OwnershipTransferRequested",
      "type": "event"
    },
    {
      "anonymous": false,
      "inputs": [
        {
          "indexed": true,
          "internalType": "address",
          "name": "from",
          "type": "address"
        },
        {
          "indexed": true,
          "internalType": "address",
          "name": "to",
          "type": "address"
        }
      ],
      "name": "OwnershipTransferred",
      "type": "event"
    },
    {
      "anonymous": false,
      "inputs": [
        {
          "indexed": true,
          "internalType": "address",
          "name": "from",
          "type": "address"
        },
        {
          "indexed": true,
          "internalType": "address",
          "name": "to",
          "type": "address"
        },
        {
          "indexed": true,
          "internalType": "uint256",
          "name": "tokenId",
          "type": "uint256"
        }
      ],
      "name": "Transfer",
      "type": "event"
    },
    {
      "anonymous": false,
      "inputs": [
        {
          "indexed": true,
          "internalType": "uint256",
          "name": "tokenId",
          "type": "uint256"
        },
        {
          "indexed": true,
          "internalType": "enum RandomIpfsNft.Breed",
          "name": "breeds",
          "type": "uint8"
        },
        {
          "indexed": true,
          "internalType": "address",
          "name": "minter",
          "type": "address"
        }
      ],
      "name": "nftMinted",
      "type": "event"
    },
    {
      "anonymous": false,
      "inputs": [
        {
          "indexed": true,
          "internalType": "uint256",
          "name": "requestId",
          "type": "uint256"
        },
        {
          "indexed": true,
          "internalType": "address",
          "name": "requester",
          "type": "address"
        }
      ],
      "name": "nftRequested",
      "type": "event"
    },
    {
      "inputs": [],
      "name": "acceptOwnership",
      "outputs": [],
      "stateMutability": "nonpayable",
      "type": "function"
    },
    {
      "inputs": [
        {
          "internalType": "address",
          "name": "to",
          "type": "address"
        },
        {
          "internalType": "uint256",
          "name": "tokenId",
          "type": "uint256"
        }
      ],
      "name": "approve",
      "outputs": [],
      "stateMutability": "nonpayable",
      "type": "function"
    },
    {
      "inputs": [
        {
          "internalType": "address",
          "name": "owner",
          "type": "address"
        }
      ],
      "name": "balanceOf",
      "outputs": [
        {
          "internalType": "uint256",
          "name": "",
          "type": "uint256"
        }
      ],
      "stateMutability": "view",
      "type": "function"
    },
    {
      "inputs": [
        {
          "internalType": "uint256",
          "name": "tokenId",
          "type": "uint256"
        }
      ],
      "name": "getApproved",
      "outputs": [
        {
          "internalType": "address",
          "name": "",
          "type": "address"
        }
      ],
      "stateMutability": "view",
      "type": "function"
    },
    {
      "inputs": [
        {
          "internalType": "uint256",
          "name": "moddedRng",
          "type": "uint256"
        }
      ],
      "name": "getBreedModRng",
      "outputs": [
        {
          "internalType": "enum RandomIpfsNft.Breed",
          "name": "",
          "type": "uint8"
        }
      ],
      "stateMutability": "pure",
      "type": "function"
    },
    {
      "inputs": [],
      "name": "getChangeBreed",
      "outputs": [
        {
          "internalType": "uint256[3]",
          "name": "",
          "type": "uint256[3]"
        }
      ],
      "stateMutability": "pure",
      "type": "function"
    },
    {
      "inputs": [
        {
          "internalType": "uint256",
          "name": "index",
          "type": "uint256"
        }
      ],
      "name": "getDogTokenURI",
      "outputs": [
        {
          "internalType": "string",
          "name": "",
          "type": "string"
        }
      ],
      "stateMutability": "view",
      "type": "function"
    },
    {
      "inputs": [],
      "name": "getMintFee",
      "outputs": [
        {
          "internalType": "uint256",
          "name": "",
          "type": "uint256"
        }
      ],
      "stateMutability": "view",
      "type": "function"
    },
    {
      "inputs": [],
      "name": "getTokenCounter",
      "outputs": [
        {
          "internalType": "uint256",
          "name": "",
          "type": "uint256"
        }
      ],
      "stateMutability": "view",
      "type": "function"
    },
    {
      "inputs": [
        {
          "internalType": "address",
          "name": "owner",
          "type": "address"
        },
        {
          "internalType": "address",
          "name": "operator",
          "type": "address"
        }
      ],
      "name": "isApprovedForAll",
      "outputs": [
        {
          "internalType": "bool",
          "name": "",
          "type": "bool"
        }
      ],
      "stateMutability": "view",
      "type": "function"
    },
    {
      "inputs": [],
      "name": "name",
      "outputs": [
        {
          "internalType": "string",
          "name": "",
          "type": "string"
        }
      ],
      "stateMutability": "view",
      "type": "function"
    },
    {
      "inputs": [],
      "name": "owner",
      "outputs": [
        {
          "internalType": "address",
          "name": "",
          "type": "address"
        }
      ],
      "stateMutability": "view",
      "type": "function"
    },
    {
      "inputs": [
        {
          "internalType": "uint256",
          "name": "tokenId",
          "type": "uint256"
        }
      ],
      "name": "ownerOf",
      "outputs": [
        {
          "internalType": "address",
          "name": "",
          "type": "address"
        }
      ],
      "stateMutability": "view",
      "type": "function"
    },
    {
      "inputs": [
        {
          "internalType": "uint256",
          "name": "requestId",
          "type": "uint256"
        },
        {
          "internalType": "uint256[]",
          "name": "randomWords",
          "type": "uint256[]"
        }
      ],
      "name": "rawFulfillRandomWords",
      "outputs": [],
      "stateMutability": "nonpayable",
      "type": "function"
    },
    {
      "inputs": [],
      "name": "requestNft",
      "outputs": [
        {
          "internalType": "uint256",
          "name": "requestId",
          "type": "uint256"
        }
      ],
      "stateMutability": "payable",
      "type": "function"
    },
    {
      "inputs": [
        {
          "internalType": "uint256",
          "name": "",
          "type": "uint256"
        }
      ],
      "name": "s_requestIdToSender",
      "outputs": [
        {
          "internalType": "address",
          "name": "",
          "type": "address"
        }
      ],
      "stateMutability": "view",
      "type": "function"
    },
    {
      "inputs": [],
      "name": "s_tokenCounter",
      "outputs": [
        {
          "internalType": "uint256",
          "name": "",
          "type": "uint256"
        }
      ],
      "stateMutability": "view",
      "type": "function"
    },
    {
      "inputs": [],
      "name": "s_vrfCoordinator",
      "outputs": [
        {
          "internalType": "contract IVRFCoordinatorV2Plus",
          "name": "",
          "type": "address"
        }
      ],
      "stateMutability": "view",
      "type": "function"
    },
    {
      "inputs": [
        {
          "internalType": "address",
          "name": "from",
          "type": "address"
        },
        {
          "internalType": "address",
          "name": "to",
          "type": "address"
        },
        {
          "internalType": "uint256",
          "name": "tokenId",
          "type": "uint256"
        }
      ],
      "name": "safeTransferFrom",
      "outputs": [],
      "stateMutability": "nonpayable",
      "type": "function"
    },
    {
      "inputs": [
        {
          "internalType": "address",
          "name": "from",
          "type": "address"
        },
        {
          "internalType": "address",
          "name": "to",
          "type": "address"
        },
        {
          "internalType": "uint256",
          "name": "tokenId",
          "type": "uint256"
        },
        {
          "internalType": "bytes",
          "name": "data",
          "type": "bytes"
        }
      ],
      "name": "safeTransferFrom",
      "outputs": [],
      "stateMutability": "nonpayable",
      "type": "function"
    },
    {
      "inputs": [
        {
          "internalType": "address",
          "name": "operator",
          "type": "address"
        },
        {
          "internalType": "bool",
          "name": "approved",
          "type": "bool"
        }
      ],
      "name": "setApprovalForAll",
      "outputs": [],
      "stateMutability": "nonpayable",
      "type": "function"
    },
    {
      "inputs": [
        {
          "internalType": "address",
          "name": "_vrfCoordinator",
          "type": "address"
        }
      ],
      "name": "setCoordinator",
      "outputs": [],
      "stateMutability": "nonpayable",
      "type": "function"
    },
    {
      "inputs": [
        {
          "internalType": "bytes4",
          "name": "interfaceId",
          "type": "bytes4"
        }
      ],
      "name": "supportsInterface",
      "outputs": [
        {
          "internalType": "bool",
          "name": "",
          "type": "bool"
        }
      ],
      "stateMutability": "view",
      "type": "function"
    },
    {
      "inputs": [],
      "name": "symbol",
      "outputs": [
        {
          "internalType": "string",
          "name": "",
          "type": "string"
        }
      ],
      "stateMutability": "view",
      "type": "function"
    },
    {
      "inputs": [
        {
          "internalType": "uint256",
          "name": "tokenId",
          "type": "uint256"
        }
      ],
      "name": "tokenURI",
      "outputs": [
        {
          "internalType": "string",
          "name": "",
          "type": "string"
        }
      ],
      "stateMutability": "view",
      "type": "function"
    },
    {
      "inputs": [
        {
          "internalType": "address",
          "name": "from",
          "type": "address"
        },
        {
          "internalType": "address",
          "name": "to",
          "type": "address"
        },
        {
          "internalType": "uint256",
          "name": "tokenId",
          "type": "uint256"
        }
      ],
      "name": "transferFrom",
      "outputs": [],
      "stateMutability": "nonpayable",
      "type": "function"
    },
    {
      "inputs": [
        {
          "internalType": "address",
          "name": "to",
          "type": "address"
        }
      ],
      "name": "transferOwnership",
      "outputs": [],
      "stateMutability": "nonpayable",
      "type": "function"
    },
    {
      "inputs": [],
      "name": "withdraw",
      "outputs": [],
      "stateMutability": "nonpayable",
      "type": "function"
    }
  ],
  "transactionHash": "0x74428ea04bcb17e0d5677cc9e08e1810ec07ec03e413284c85f49553b3156df7",
  "args": [
    "0x8103B0A8A00be2DDC778e6e7eaa21791Cd364625",
    "0x474e34a077df58807dbe9c96d3c009b23b3c6d0cce433e59bbf5b34f823bc56c",
    "111573491681206741110796135053056066002501003447431212922826476593299876159752",
    "500000",
    [
      "ipfs://QmRVCfDzF5idtLC43aY5fxUCxrsBGPJQVXyxDAgfuF6kpc",
      "ipfs://Qmaz9inET5724cfLiNnyhq2K46SMPhD2y5grV3RLPXwgVA",
      "ipfs://QmUL7p6JAa9JB1sNY2q5w5QR5qpFKniFMBJ7iCToWd5rAM"
    ],
    "10000000000000000"
  ],
  "numDeployments": 1,
  "solcInputHash": "3b4ae25f8630e31fd406596cbd159f35",
  "bytecode": "0x6101006040523480156200001257600080fd5b506040516200509d3803806200509d833981810160405281019062000038919062000874565b6040518060400160405280600f81526020017f52616e646f6d2049706673204e667400000000000000000000000000000000008152506040518060400160405280600381526020017f4e4954000000000000000000000000000000000000000000000000000000000081525087338060008073ffffffffffffffffffffffffffffffffffffffff168273ffffffffffffffffffffffffffffffffffffffff16036200011a576040517f08c379a0000000000000000000000000000000000000000000000000000000008152600401620001119062000990565b60405180910390fd5b816000806101000a81548173ffffffffffffffffffffffffffffffffffffffff021916908373ffffffffffffffffffffffffffffffffffffffff160217905550600073ffffffffffffffffffffffffffffffffffffffff168173ffffffffffffffffffffffffffffffffffffffff1614620001a157620001a081620002bf60201b60201c565b5b505050600073ffffffffffffffffffffffffffffffffffffffff168173ffffffffffffffffffffffffffffffffffffffff16036200020b576040517fd92e233d00000000000000000000000000000000000000000000000000000000815260040160405180910390fd5b80600260006101000a81548173ffffffffffffffffffffffffffffffffffffffff021916908373ffffffffffffffffffffffffffffffffffffffff1602179055505081600390816200025e919062000bf3565b50806004908162000270919062000bf3565b50505084608081815250508263ffffffff1660c08163ffffffff16815250508360a0818152505081600c906003620002aa929190620003ee565b508060e0818152505050505050505062000d4c565b3373ffffffffffffffffffffffffffffffffffffffff168173ffffffffffffffffffffffffffffffffffffffff160362000330576040517f08c379a0000000000000000000000000000000000000000000000000000000008152600401620003279062000d2a565b60405180910390fd5b80600160006101000a81548173ffffffffffffffffffffffffffffffffffffffff021916908373ffffffffffffffffffffffffffffffffffffffff1602179055508073ffffffffffffffffffffffffffffffffffffffff1660008054906101000a900473ffffffffffffffffffffffffffffffffffffffff1673ffffffffffffffffffffffffffffffffffffffff167fed8889f560326eb138920d842192f0eb3dd22b4f139c87a2c57538e05bae127860405160405180910390a350565b8280548282559060005260206000209081019282156200043b579160200282015b828111156200043a57825182908162000429919062000bf3565b50916020019190600101906200040f565b5b5090506200044a91906200044e565b5090565b5b8082111562000472576000818162000468919062000476565b506001016200044f565b5090565b5080546200048490620009ec565b6000825580601f10620004985750620004b9565b601f016020900490600052602060002090810190620004b89190620004bc565b5b50565b5b80821115620004d7576000816000905550600101620004bd565b5090565b6000604051905090565b600080fd5b600080fd5b600073ffffffffffffffffffffffffffffffffffffffff82169050919050565b60006200051c82620004ef565b9050919050565b6200052e816200050f565b81146200053a57600080fd5b50565b6000815190506200054e8162000523565b92915050565b6000819050919050565b620005698162000554565b81146200057557600080fd5b50565b60008151905062000589816200055e565b92915050565b6000819050919050565b620005a4816200058f565b8114620005b057600080fd5b50565b600081519050620005c48162000599565b92915050565b600063ffffffff82169050919050565b620005e581620005ca565b8114620005f157600080fd5b50565b6000815190506200060581620005da565b92915050565b600080fd5b6000601f19601f8301169050919050565b7f4e487b7100000000000000000000000000000000000000000000000000000000600052604160045260246000fd5b6200065b8262000610565b810181811067ffffffffffffffff821117156200067d576200067c62000621565b5b80604052505050565b600062000692620004db565b9050620006a0828262000650565b919050565b600067ffffffffffffffff821115620006c357620006c262000621565b5b602082029050919050565b600080fd5b600080fd5b600067ffffffffffffffff821115620006f657620006f562000621565b5b620007018262000610565b9050602081019050919050565b60005b838110156200072e57808201518184015260208101905062000711565b60008484015250505050565b6000620007516200074b84620006d8565b62000686565b90508281526020810184848401111562000770576200076f620006d3565b5b6200077d8482856200070e565b509392505050565b600082601f8301126200079d576200079c6200060b565b5b8151620007af8482602086016200073a565b91505092915050565b6000620007cf620007c984620006a5565b62000686565b90508060208402830185811115620007ec57620007eb620006ce565b5b835b818110156200083a57805167ffffffffffffffff8111156200081557620008146200060b565b5b80860162000824898262000785565b85526020850194505050602081019050620007ee565b5050509392505050565b600082601f8301126200085c576200085b6200060b565b5b60036200086b848285620007b8565b91505092915050565b60008060008060008060c08789031215620008945762000893620004e5565b5b6000620008a489828a016200053d565b9650506020620008b789828a0162000578565b9550506040620008ca89828a01620005b3565b9450506060620008dd89828a01620005f4565b935050608087015167ffffffffffffffff811115620009015762000900620004ea565b5b6200090f89828a0162000844565b92505060a06200092289828a01620005b3565b9150509295509295509295565b600082825260208201905092915050565b7f43616e6e6f7420736574206f776e657220746f207a65726f0000000000000000600082015250565b6000620009786018836200092f565b9150620009858262000940565b602082019050919050565b60006020820190508181036000830152620009ab8162000969565b9050919050565b600081519050919050565b7f4e487b7100000000000000000000000000000000000000000000000000000000600052602260045260246000fd5b6000600282049050600182168062000a0557607f821691505b60208210810362000a1b5762000a1a620009bd565b5b50919050565b60008190508160005260206000209050919050565b60006020601f8301049050919050565b600082821b905092915050565b60006008830262000a857fffffffffffffffffffffffffffffffffffffffffffffffffffffffffffffffff8262000a46565b62000a91868362000a46565b95508019841693508086168417925050509392505050565b6000819050919050565b600062000ad462000ace62000ac8846200058f565b62000aa9565b6200058f565b9050919050565b6000819050919050565b62000af08362000ab3565b62000b0862000aff8262000adb565b84845462000a53565b825550505050565b600090565b62000b1f62000b10565b62000b2c81848462000ae5565b505050565b5b8181101562000b545762000b4860008262000b15565b60018101905062000b32565b5050565b601f82111562000ba35762000b6d8162000a21565b62000b788462000a36565b8101602085101562000b88578190505b62000ba062000b978562000a36565b83018262000b31565b50505b505050565b600082821c905092915050565b600062000bc86000198460080262000ba8565b1980831691505092915050565b600062000be3838362000bb5565b9150826002028217905092915050565b62000bfe82620009b2565b67ffffffffffffffff81111562000c1a5762000c1962000621565b5b62000c268254620009ec565b62000c3382828562000b58565b600060209050601f83116001811462000c6b576000841562000c56578287015190505b62000c62858262000bd5565b86555062000cd2565b601f19841662000c7b8662000a21565b60005b8281101562000ca55784890151825560018201915060208501945060208101905062000c7e565b8683101562000cc5578489015162000cc1601f89168262000bb5565b8355505b6001600288020188555050505b505050505050565b7f43616e6e6f74207472616e7366657220746f2073656c66000000000000000000600082015250565b600062000d126017836200092f565b915062000d1f8262000cda565b602082019050919050565b6000602082019050818103600083015262000d458162000d03565b9050919050565b60805160a05160c05160e05161431062000d8d60003960008181610f0a01526112ed015260006113e7015260006113b60152600061139001526143106000f3fe6080604052600436106101b75760003560e01c806379ba5097116100ec578063a22cb4651161008a578063b88d4fde11610064578063b88d4fde14610601578063c87b56dd1461062a578063e985e9c514610667578063f2fde38b146106a4576101b7565b8063a22cb4651461057d578063a36f573b146105a6578063aa152491146105e3576101b7565b80638da5cb5b116100c65780638da5cb5b146104d35780638ea98117146104fe57806395d89b41146105275780639eccacf614610552576101b7565b806379ba5097146104545780637a5caab31461046b578063804079ad14610496576101b7565b806323b872dd116101595780636352211e116101335780636352211e1461038457806366642a07146103c15780636e02007d146103ec57806370a0823114610417576101b7565b806323b872dd1461031b5780633ccfd60b1461034457806342842e0e1461035b576101b7565b8063086b6c0b11610195578063086b6c0b14610261578063095ea7b31461029e5780630b21a83b146102c75780631fe543e3146102f2576101b7565b806301ffc9a7146101bc57806306fdde03146101f9578063081812fc14610224575b600080fd5b3480156101c857600080fd5b506101e360048036038101906101de9190612bad565b6106cd565b6040516101f09190612bf5565b60405180910390f35b34801561020557600080fd5b5061020e61072e565b60405161021b9190612ca0565b60405180910390f35b34801561023057600080fd5b5061024b60048036038101906102469190612cf8565b6107c0565b6040516102589190612d66565b60405180910390f35b34801561026d57600080fd5b5061028860048036038101906102839190612cf8565b610806565b6040516102959190612df8565b60405180910390f35b3480156102aa57600080fd5b506102c560048036038101906102c09190612e3f565b6108e8565b005b3480156102d357600080fd5b506102dc6109ff565b6040516102e99190612e8e565b60405180910390f35b3480156102fe57600080fd5b5061031960048036038101906103149190612f0e565b610a05565b005b34801561032757600080fd5b50610342600480360381019061033d9190612f6e565b610acb565b005b34801561035057600080fd5b50610359610b2b565b005b34801561036757600080fd5b50610382600480360381019061037d9190612f6e565b610bdf565b005b34801561039057600080fd5b506103ab60048036038101906103a69190612cf8565b610bff565b6040516103b89190612d66565b60405180910390f35b3480156103cd57600080fd5b506103d6610c85565b6040516103e3919061306c565b60405180910390f35b3480156103f857600080fd5b50610401610cb0565b60405161040e9190612e8e565b60405180910390f35b34801561042357600080fd5b5061043e60048036038101906104399190613087565b610cba565b60405161044b9190612e8e565b60405180910390f35b34801561046057600080fd5b50610469610d71565b005b34801561047757600080fd5b50610480610f06565b60405161048d9190612e8e565b60405180910390f35b3480156104a257600080fd5b506104bd60048036038101906104b89190612cf8565b610f2e565b6040516104ca9190612ca0565b60405180910390f35b3480156104df57600080fd5b506104e8610fde565b6040516104f59190612d66565b60405180910390f35b34801561050a57600080fd5b5061052560048036038101906105209190613087565b611007565b005b34801561053357600080fd5b5061053c6111e8565b6040516105499190612ca0565b60405180910390f35b34801561055e57600080fd5b5061056761127a565b6040516105749190613113565b60405180910390f35b34801561058957600080fd5b506105a4600480360381019061059f919061315a565b6112a0565b005b3480156105b257600080fd5b506105cd60048036038101906105c89190612cf8565b6112b6565b6040516105da9190612d66565b60405180910390f35b6105eb6112e9565b6040516105f89190612e8e565b60405180910390f35b34801561060d57600080fd5b50610628600480360381019061062391906132ca565b611535565b005b34801561063657600080fd5b50610651600480360381019061064c9190612cf8565b611597565b60405161065e9190612ca0565b60405180910390f35b34801561067357600080fd5b5061068e6004803603810190610689919061334d565b6116a9565b60405161069b9190612bf5565b60405180910390f35b3480156106b057600080fd5b506106cb60048036038101906106c69190613087565b61173d565b005b6000634906490660e01b7bffffffffffffffffffffffffffffffffffffffffffffffffffffffff1916827bffffffffffffffffffffffffffffffffffffffffffffffffffffffff19161480610727575061072682611751565b5b9050919050565b60606003805461073d906133bc565b80601f0160208091040260200160405190810160405280929190818152602001828054610769906133bc565b80156107b65780601f1061078b576101008083540402835291602001916107b6565b820191906000526020600020905b81548152906001019060200180831161079957829003601f168201915b5050505050905090565b60006107cb82611833565b6007600083815260200190815260200160002060009054906101000a900473ffffffffffffffffffffffffffffffffffffffff169050919050565b600080600090506000610817610c85565b905060005b60038110156108b0578285101580156108565750818160038110610843576108426133ed565b5b602002015183610853919061344b565b85105b156108785780600281111561086e5761086d612d81565b5b93505050506108e3565b81816003811061088b5761088a6133ed565b5b60200201518361089b919061344b565b925080806108a89061347f565b91505061081c565b506040517f3c4b8a8500000000000000000000000000000000000000000000000000000000815260040160405180910390fd5b919050565b60006108f382610bff565b90508073ffffffffffffffffffffffffffffffffffffffff168373ffffffffffffffffffffffffffffffffffffffff1603610963576040517f08c379a000000000000000000000000000000000000000000000000000000000815260040161095a90613539565b60405180910390fd5b8073ffffffffffffffffffffffffffffffffffffffff1661098261187e565b73ffffffffffffffffffffffffffffffffffffffff1614806109b157506109b0816109ab61187e565b6116a9565b5b6109f0576040517f08c379a00000000000000000000000000000000000000000000000000000000081526004016109e7906135cb565b60405180910390fd5b6109fa8383611886565b505050565b600b5481565b600260009054906101000a900473ffffffffffffffffffffffffffffffffffffffff1673ffffffffffffffffffffffffffffffffffffffff163373ffffffffffffffffffffffffffffffffffffffff1614610abb5733600260009054906101000a900473ffffffffffffffffffffffffffffffffffffffff166040517f1cf993f4000000000000000000000000000000000000000000000000000000008152600401610ab29291906135eb565b60405180910390fd5b610ac683838361193f565b505050565b610adc610ad661187e565b82611afd565b610b1b576040517f08c379a0000000000000000000000000000000000000000000000000000000008152600401610b1290613686565b60405180910390fd5b610b26838383611b92565b505050565b610b33611e8b565b600047905060003373ffffffffffffffffffffffffffffffffffffffff1682604051610b5e906136d7565b60006040518083038185875af1925050503d8060008114610b9b576040519150601f19603f3d011682016040523d82523d6000602084013e610ba0565b606091505b5050905080610bdb576040517fffaa940200000000000000000000000000000000000000000000000000000000815260040160405180910390fd5b5050565b610bfa83838360405180602001604052806000815250611535565b505050565b600080610c0b83611f1b565b9050600073ffffffffffffffffffffffffffffffffffffffff168173ffffffffffffffffffffffffffffffffffffffff1603610c7c576040517f08c379a0000000000000000000000000000000000000000000000000000000008152600401610c7390613738565b60405180910390fd5b80915050919050565b610c8d612b1f565b6040518060600160405280600a8152602001601e81526020016064815250905090565b6000600b54905090565b60008073ffffffffffffffffffffffffffffffffffffffff168273ffffffffffffffffffffffffffffffffffffffff1603610d2a576040517f08c379a0000000000000000000000000000000000000000000000000000000008152600401610d21906137ca565b60405180910390fd5b600660008373ffffffffffffffffffffffffffffffffffffffff1673ffffffffffffffffffffffffffffffffffffffff168152602001908152602001600020549050919050565b600160009054906101000a900473ffffffffffffffffffffffffffffffffffffffff1673ffffffffffffffffffffffffffffffffffffffff163373ffffffffffffffffffffffffffffffffffffffff1614610e01576040517f08c379a0000000000000000000000000000000000000000000000000000000008152600401610df890613836565b60405180910390fd5b60008060009054906101000a900473ffffffffffffffffffffffffffffffffffffffff169050336000806101000a81548173ffffffffffffffffffffffffffffffffffffffff021916908373ffffffffffffffffffffffffffffffffffffffff1602179055506000600160006101000a81548173ffffffffffffffffffffffffffffffffffffffff021916908373ffffffffffffffffffffffffffffffffffffffff1602179055503373ffffffffffffffffffffffffffffffffffffffff168173ffffffffffffffffffffffffffffffffffffffff167f8be0079c531659141344cd1fd0a4f28419497f9722a3daafe3b4186f6b6457e060405160405180910390a350565b60007f0000000000000000000000000000000000000000000000000000000000000000905090565b6060600c8281548110610f4457610f436133ed565b5b906000526020600020018054610f59906133bc565b80601f0160208091040260200160405190810160405280929190818152602001828054610f85906133bc565b8015610fd25780601f10610fa757610100808354040283529160200191610fd2565b820191906000526020600020905b815481529060010190602001808311610fb557829003601f168201915b50505050509050919050565b60008060009054906101000a900473ffffffffffffffffffffffffffffffffffffffff16905090565b61100f610fde565b73ffffffffffffffffffffffffffffffffffffffff163373ffffffffffffffffffffffffffffffffffffffff16141580156110985750600260009054906101000a900473ffffffffffffffffffffffffffffffffffffffff1673ffffffffffffffffffffffffffffffffffffffff163373ffffffffffffffffffffffffffffffffffffffff1614155b1561110757336110a6610fde565b600260009054906101000a900473ffffffffffffffffffffffffffffffffffffffff166040517f061db9c10000000000000000000000000000000000000000000000000000000081526004016110fe93929190613856565b60405180910390fd5b600073ffffffffffffffffffffffffffffffffffffffff168173ffffffffffffffffffffffffffffffffffffffff160361116d576040517fd92e233d00000000000000000000000000000000000000000000000000000000815260040160405180910390fd5b80600260006101000a81548173ffffffffffffffffffffffffffffffffffffffff021916908373ffffffffffffffffffffffffffffffffffffffff1602179055507fd1a6a14209a385a964d036e404cb5cfb71f4000cdb03c9366292430787261be6816040516111dd9190612d66565b60405180910390a150565b6060600480546111f7906133bc565b80601f0160208091040260200160405190810160405280929190818152602001828054611223906133bc565b80156112705780601f1061124557610100808354040283529160200191611270565b820191906000526020600020905b81548152906001019060200180831161125357829003601f168201915b5050505050905090565b600260009054906101000a900473ffffffffffffffffffffffffffffffffffffffff1681565b6112b26112ab61187e565b8383611f58565b5050565b600a6020528060005260406000206000915054906101000a900473ffffffffffffffffffffffffffffffffffffffff1681565b60007f0000000000000000000000000000000000000000000000000000000000000000341015611345576040517fbd9aefd500000000000000000000000000000000000000000000000000000000815260040160405180910390fd5b600260009054906101000a900473ffffffffffffffffffffffffffffffffffffffff1673ffffffffffffffffffffffffffffffffffffffff16639b1c385e6040518060c001604052807f000000000000000000000000000000000000000000000000000000000000000081526020017f00000000000000000000000000000000000000000000000000000000000000008152602001600361ffff1681526020017f000000000000000000000000000000000000000000000000000000000000000063ffffffff168152602001600163ffffffff1681526020016114386040518060200160405280600015158152506120c4565b8152506040518263ffffffff1660e01b815260040161145791906139c0565b6020604051808303816000875af1158015611476573d6000803e3d6000fd5b505050506040513d601f19601f8201168201806040525081019061149a91906139f7565b905033600a600083815260200190815260200160002060006101000a81548173ffffffffffffffffffffffffffffffffffffffff021916908373ffffffffffffffffffffffffffffffffffffffff1602179055503373ffffffffffffffffffffffffffffffffffffffff16817fb77d492ca16c0fc7e1a62736b735a9b86bf20f020e61e4be967843f7b36d8b0160405160405180910390a390565b61154661154061187e565b83611afd565b611585576040517f08c379a000000000000000000000000000000000000000000000000000000000815260040161157c90613686565b60405180910390fd5b6115918484848461215c565b50505050565b60606115a282611833565b60006009600084815260200190815260200160002080546115c2906133bc565b80601f01602080910402602001604051908101604052809291908181526020018280546115ee906133bc565b801561163b5780601f106116105761010080835404028352916020019161163b565b820191906000526020600020905b81548152906001019060200180831161161e57829003601f168201915b50505050509050600061164c6121b8565b905060008151036116615781925050506116a4565b60008251111561169657808260405160200161167e929190613a60565b604051602081830303815290604052925050506116a4565b61169f846121cf565b925050505b919050565b6000600860008473ffffffffffffffffffffffffffffffffffffffff1673ffffffffffffffffffffffffffffffffffffffff16815260200190815260200160002060008373ffffffffffffffffffffffffffffffffffffffff1673ffffffffffffffffffffffffffffffffffffffff16815260200190815260200160002060009054906101000a900460ff16905092915050565b611745611e8b565b61174e81612237565b50565b60007f80ac58cd000000000000000000000000000000000000000000000000000000007bffffffffffffffffffffffffffffffffffffffffffffffffffffffff1916827bffffffffffffffffffffffffffffffffffffffffffffffffffffffff1916148061181c57507f5b5e139f000000000000000000000000000000000000000000000000000000007bffffffffffffffffffffffffffffffffffffffffffffffffffffffff1916827bffffffffffffffffffffffffffffffffffffffffffffffffffffffff1916145b8061182c575061182b82612363565b5b9050919050565b61183c816123cd565b61187b576040517f08c379a000000000000000000000000000000000000000000000000000000000815260040161187290613738565b60405180910390fd5b50565b600033905090565b816007600083815260200190815260200160002060006101000a81548173ffffffffffffffffffffffffffffffffffffffff021916908373ffffffffffffffffffffffffffffffffffffffff160217905550808273ffffffffffffffffffffffffffffffffffffffff166118f983610bff565b73ffffffffffffffffffffffffffffffffffffffff167f8c5be1e5ebec7d5bd14f71427d1e84f3dd0314c0f7b2291e5b200ac8c7c3b92560405160405180910390a45050565b6000600a600085815260200190815260200160002060009054906101000a900473ffffffffffffffffffffffffffffffffffffffff1690506000600b549050600b54600b6000828254611992919061344b565b9250508190555060006064858560008181106119b1576119b06133ed565b5b905060200201356119c29190613ab3565b905060006119cf82610806565b90506119db848461240e565b611a9d83600c8360028111156119f4576119f3612d81565b5b81548110611a0557611a046133ed565b5b906000526020600020018054611a1a906133bc565b80601f0160208091040260200160405190810160405280929190818152602001828054611a46906133bc565b8015611a935780601f10611a6857610100808354040283529160200191611a93565b820191906000526020600020905b815481529060010190602001808311611a7657829003601f168201915b505050505061242c565b8373ffffffffffffffffffffffffffffffffffffffff16816002811115611ac757611ac6612d81565b5b847fec7b77642a5f3f7e6726eaed4bf828d68ac664b2c4c9bd50301f1b855f11a63860405160405180910390a450505050505050565b600080611b0983610bff565b90508073ffffffffffffffffffffffffffffffffffffffff168473ffffffffffffffffffffffffffffffffffffffff161480611b4b5750611b4a81856116a9565b5b80611b8957508373ffffffffffffffffffffffffffffffffffffffff16611b71846107c0565b73ffffffffffffffffffffffffffffffffffffffff16145b91505092915050565b8273ffffffffffffffffffffffffffffffffffffffff16611bb282610bff565b73ffffffffffffffffffffffffffffffffffffffff1614611c08576040517f08c379a0000000000000000000000000000000000000000000000000000000008152600401611bff90613b56565b60405180910390fd5b600073ffffffffffffffffffffffffffffffffffffffff168273ffffffffffffffffffffffffffffffffffffffff1603611c77576040517f08c379a0000000000000000000000000000000000000000000000000000000008152600401611c6e90613be8565b60405180910390fd5b611c8483838360016124d0565b8273ffffffffffffffffffffffffffffffffffffffff16611ca482610bff565b73ffffffffffffffffffffffffffffffffffffffff1614611cfa576040517f08c379a0000000000000000000000000000000000000000000000000000000008152600401611cf190613b56565b60405180910390fd5b6007600082815260200190815260200160002060006101000a81549073ffffffffffffffffffffffffffffffffffffffff02191690556001600660008573ffffffffffffffffffffffffffffffffffffffff1673ffffffffffffffffffffffffffffffffffffffff168152602001908152602001600020600082825403925050819055506001600660008473ffffffffffffffffffffffffffffffffffffffff1673ffffffffffffffffffffffffffffffffffffffff16815260200190815260200160002060008282540192505081905550816005600083815260200190815260200160002060006101000a81548173ffffffffffffffffffffffffffffffffffffffff021916908373ffffffffffffffffffffffffffffffffffffffff160217905550808273ffffffffffffffffffffffffffffffffffffffff168473ffffffffffffffffffffffffffffffffffffffff167fddf252ad1be2c89b69c2b068fc378daa952ba7f163c4a11628f55a4df523b3ef60405160405180910390a4611e8683838360016124d6565b505050565b60008054906101000a900473ffffffffffffffffffffffffffffffffffffffff1673ffffffffffffffffffffffffffffffffffffffff163373ffffffffffffffffffffffffffffffffffffffff1614611f19576040517f08c379a0000000000000000000000000000000000000000000000000000000008152600401611f1090613c54565b60405180910390fd5b565b60006005600083815260200190815260200160002060009054906101000a900473ffffffffffffffffffffffffffffffffffffffff169050919050565b8173ffffffffffffffffffffffffffffffffffffffff168373ffffffffffffffffffffffffffffffffffffffff1603611fc6576040517f08c379a0000000000000000000000000000000000000000000000000000000008152600401611fbd90613cc0565b60405180910390fd5b80600860008573ffffffffffffffffffffffffffffffffffffffff1673ffffffffffffffffffffffffffffffffffffffff16815260200190815260200160002060008473ffffffffffffffffffffffffffffffffffffffff1673ffffffffffffffffffffffffffffffffffffffff16815260200190815260200160002060006101000a81548160ff0219169083151502179055508173ffffffffffffffffffffffffffffffffffffffff168373ffffffffffffffffffffffffffffffffffffffff167f17307eab39ab6107e8899845ad3d59bd9653f200f220920489ca2b5937696c31836040516120b79190612bf5565b60405180910390a3505050565b60607f92fd13387c7fe7befbc38d303d6468778fb9731bc4583f17d92989c6fcfdeaaa826040516024016120f89190613d0b565b604051602081830303815290604052907bffffffffffffffffffffffffffffffffffffffffffffffffffffffff19166020820180517bffffffffffffffffffffffffffffffffffffffffffffffffffffffff83818316178352505050509050919050565b612167848484611b92565b612173848484846124dc565b6121b2576040517f08c379a00000000000000000000000000000000000000000000000000000000081526004016121a990613d98565b60405180910390fd5b50505050565b606060405180602001604052806000815250905090565b60606121da82611833565b60006121e46121b8565b90506000815111612204576040518060200160405280600081525061222f565b8061220e84612663565b60405160200161221f929190613a60565b6040516020818303038152906040525b915050919050565b3373ffffffffffffffffffffffffffffffffffffffff168173ffffffffffffffffffffffffffffffffffffffff16036122a5576040517f08c379a000000000000000000000000000000000000000000000000000000000815260040161229c90613e04565b60405180910390fd5b80600160006101000a81548173ffffffffffffffffffffffffffffffffffffffff021916908373ffffffffffffffffffffffffffffffffffffffff1602179055508073ffffffffffffffffffffffffffffffffffffffff1660008054906101000a900473ffffffffffffffffffffffffffffffffffffffff1673ffffffffffffffffffffffffffffffffffffffff167fed8889f560326eb138920d842192f0eb3dd22b4f139c87a2c57538e05bae127860405160405180910390a350565b60007f01ffc9a7000000000000000000000000000000000000000000000000000000007bffffffffffffffffffffffffffffffffffffffffffffffffffffffff1916827bffffffffffffffffffffffffffffffffffffffffffffffffffffffff1916149050919050565b60008073ffffffffffffffffffffffffffffffffffffffff166123ef83611f1b565b73ffffffffffffffffffffffffffffffffffffffff1614159050919050565b612428828260405180602001604052806000815250612731565b5050565b612435826123cd565b612474576040517f08c379a000000000000000000000000000000000000000000000000000000000815260040161246b90613e96565b60405180910390fd5b806009600084815260200190815260200160002090816124949190614058565b507ff8e1a15aba9398e019f0b49df1a4fde98ee17ae345cb5f6b5e2c27f5033e8ce7826040516124c49190612e8e565b60405180910390a15050565b50505050565b50505050565b60006124fd8473ffffffffffffffffffffffffffffffffffffffff1661278c565b15612656578373ffffffffffffffffffffffffffffffffffffffff1663150b7a0261252661187e565b8786866040518563ffffffff1660e01b81526004016125489493929190614174565b6020604051808303816000875af192505050801561258457506040513d601f19601f8201168201806040525081019061258191906141d5565b60015b612606573d80600081146125b4576040519150601f19603f3d011682016040523d82523d6000602084013e6125b9565b606091505b5060008151036125fe576040517f08c379a00000000000000000000000000000000000000000000000000000000081526004016125f590613d98565b60405180910390fd5b805181602001fd5b63150b7a0260e01b7bffffffffffffffffffffffffffffffffffffffffffffffffffffffff1916817bffffffffffffffffffffffffffffffffffffffffffffffffffffffff19161491505061265b565b600190505b949350505050565b606060006001612672846127af565b01905060008167ffffffffffffffff8111156126915761269061319f565b5b6040519080825280601f01601f1916602001820160405280156126c35781602001600182028036833780820191505090505b509050600082602001820190505b600115612726578080600190039150507f3031323334353637383961626364656600000000000000000000000000000000600a86061a8153600a858161271a57612719613a84565b5b049450600085036126d1575b819350505050919050565b61273b8383612902565b61274860008484846124dc565b612787576040517f08c379a000000000000000000000000000000000000000000000000000000000815260040161277e90613d98565b60405180910390fd5b505050565b6000808273ffffffffffffffffffffffffffffffffffffffff163b119050919050565b600080600090507a184f03e93ff9f4daa797ed6e38ed64bf6a1f010000000000000000831061280d577a184f03e93ff9f4daa797ed6e38ed64bf6a1f010000000000000000838161280357612802613a84565b5b0492506040810190505b6d04ee2d6d415b85acef8100000000831061284a576d04ee2d6d415b85acef810000000083816128405761283f613a84565b5b0492506020810190505b662386f26fc10000831061287957662386f26fc10000838161286f5761286e613a84565b5b0492506010810190505b6305f5e10083106128a2576305f5e100838161289857612897613a84565b5b0492506008810190505b61271083106128c75761271083816128bd576128bc613a84565b5b0492506004810190505b606483106128ea57606483816128e0576128df613a84565b5b0492506002810190505b600a83106128f9576001810190505b80915050919050565b600073ffffffffffffffffffffffffffffffffffffffff168273ffffffffffffffffffffffffffffffffffffffff1603612971576040517f08c379a00000000000000000000000000000000000000000000000000000000081526004016129689061424e565b60405180910390fd5b61297a816123cd565b156129ba576040517f08c379a00000000000000000000000000000000000000000000000000000000081526004016129b1906142ba565b60405180910390fd5b6129c86000838360016124d0565b6129d1816123cd565b15612a11576040517f08c379a0000000000000000000000000000000000000000000000000000000008152600401612a08906142ba565b60405180910390fd5b6001600660008473ffffffffffffffffffffffffffffffffffffffff1673ffffffffffffffffffffffffffffffffffffffff16815260200190815260200160002060008282540192505081905550816005600083815260200190815260200160002060006101000a81548173ffffffffffffffffffffffffffffffffffffffff021916908373ffffffffffffffffffffffffffffffffffffffff160217905550808273ffffffffffffffffffffffffffffffffffffffff16600073ffffffffffffffffffffffffffffffffffffffff167fddf252ad1be2c89b69c2b068fc378daa952ba7f163c4a11628f55a4df523b3ef60405160405180910390a4612b1b6000838360016124d6565b5050565b6040518060600160405280600390602082028036833780820191505090505090565b6000604051905090565b600080fd5b600080fd5b60007fffffffff0000000000000000000000000000000000000000000000000000000082169050919050565b612b8a81612b55565b8114612b9557600080fd5b50565b600081359050612ba781612b81565b92915050565b600060208284031215612bc357612bc2612b4b565b5b6000612bd184828501612b98565b91505092915050565b60008115159050919050565b612bef81612bda565b82525050565b6000602082019050612c0a6000830184612be6565b92915050565b600081519050919050565b600082825260208201905092915050565b60005b83811015612c4a578082015181840152602081019050612c2f565b60008484015250505050565b6000601f19601f8301169050919050565b6000612c7282612c10565b612c7c8185612c1b565b9350612c8c818560208601612c2c565b612c9581612c56565b840191505092915050565b60006020820190508181036000830152612cba8184612c67565b905092915050565b6000819050919050565b612cd581612cc2565b8114612ce057600080fd5b50565b600081359050612cf281612ccc565b92915050565b600060208284031215612d0e57612d0d612b4b565b5b6000612d1c84828501612ce3565b91505092915050565b600073ffffffffffffffffffffffffffffffffffffffff82169050919050565b6000612d5082612d25565b9050919050565b612d6081612d45565b82525050565b6000602082019050612d7b6000830184612d57565b92915050565b7f4e487b7100000000000000000000000000000000000000000000000000000000600052602160045260246000fd5b60038110612dc157612dc0612d81565b5b50565b6000819050612dd282612db0565b919050565b6000612de282612dc4565b9050919050565b612df281612dd7565b82525050565b6000602082019050612e0d6000830184612de9565b92915050565b612e1c81612d45565b8114612e2757600080fd5b50565b600081359050612e3981612e13565b92915050565b60008060408385031215612e5657612e55612b4b565b5b6000612e6485828601612e2a565b9250506020612e7585828601612ce3565b9150509250929050565b612e8881612cc2565b82525050565b6000602082019050612ea36000830184612e7f565b92915050565b600080fd5b600080fd5b600080fd5b60008083601f840112612ece57612ecd612ea9565b5b8235905067ffffffffffffffff811115612eeb57612eea612eae565b5b602083019150836020820283011115612f0757612f06612eb3565b5b9250929050565b600080600060408486031215612f2757612f26612b4b565b5b6000612f3586828701612ce3565b935050602084013567ffffffffffffffff811115612f5657612f55612b50565b5b612f6286828701612eb8565b92509250509250925092565b600080600060608486031215612f8757612f86612b4b565b5b6000612f9586828701612e2a565b9350506020612fa686828701612e2a565b9250506040612fb786828701612ce3565b9150509250925092565b600060039050919050565b600081905092915050565b6000819050919050565b612fea81612cc2565b82525050565b6000612ffc8383612fe1565b60208301905092915050565b6000602082019050919050565b61301e81612fc1565b6130288184612fcc565b925061303382612fd7565b8060005b8381101561306457815161304b8782612ff0565b965061305683613008565b925050600181019050613037565b505050505050565b60006060820190506130816000830184613015565b92915050565b60006020828403121561309d5761309c612b4b565b5b60006130ab84828501612e2a565b91505092915050565b6000819050919050565b60006130d96130d46130cf84612d25565b6130b4565b612d25565b9050919050565b60006130eb826130be565b9050919050565b60006130fd826130e0565b9050919050565b61310d816130f2565b82525050565b60006020820190506131286000830184613104565b92915050565b61313781612bda565b811461314257600080fd5b50565b6000813590506131548161312e565b92915050565b6000806040838503121561317157613170612b4b565b5b600061317f85828601612e2a565b925050602061319085828601613145565b9150509250929050565b600080fd5b7f4e487b7100000000000000000000000000000000000000000000000000000000600052604160045260246000fd5b6131d782612c56565b810181811067ffffffffffffffff821117156131f6576131f561319f565b5b80604052505050565b6000613209612b41565b905061321582826131ce565b919050565b600067ffffffffffffffff8211156132355761323461319f565b5b61323e82612c56565b9050602081019050919050565b82818337600083830152505050565b600061326d6132688461321a565b6131ff565b9050828152602081018484840111156132895761328861319a565b5b61329484828561324b565b509392505050565b600082601f8301126132b1576132b0612ea9565b5b81356132c184826020860161325a565b91505092915050565b600080600080608085870312156132e4576132e3612b4b565b5b60006132f287828801612e2a565b945050602061330387828801612e2a565b935050604061331487828801612ce3565b925050606085013567ffffffffffffffff81111561333557613334612b50565b5b6133418782880161329c565b91505092959194509250565b6000806040838503121561336457613363612b4b565b5b600061337285828601612e2a565b925050602061338385828601612e2a565b9150509250929050565b7f4e487b7100000000000000000000000000000000000000000000000000000000600052602260045260246000fd5b600060028204905060018216806133d457607f821691505b6020821081036133e7576133e661338d565b5b50919050565b7f4e487b7100000000000000000000000000000000000000000000000000000000600052603260045260246000fd5b7f4e487b7100000000000000000000000000000000000000000000000000000000600052601160045260246000fd5b600061345682612cc2565b915061346183612cc2565b92508282019050808211156134795761347861341c565b5b92915050565b600061348a82612cc2565b91507fffffffffffffffffffffffffffffffffffffffffffffffffffffffffffffffff82036134bc576134bb61341c565b5b600182019050919050565b7f4552433732313a20617070726f76616c20746f2063757272656e74206f776e6560008201527f7200000000000000000000000000000000000000000000000000000000000000602082015250565b6000613523602183612c1b565b915061352e826134c7565b604082019050919050565b6000602082019050818103600083015261355281613516565b9050919050565b7f4552433732313a20617070726f76652063616c6c6572206973206e6f7420746f60008201527f6b656e206f776e6572206f7220617070726f76656420666f7220616c6c000000602082015250565b60006135b5603d83612c1b565b91506135c082613559565b604082019050919050565b600060208201905081810360008301526135e4816135a8565b9050919050565b60006040820190506136006000830185612d57565b61360d6020830184612d57565b9392505050565b7f4552433732313a2063616c6c6572206973206e6f7420746f6b656e206f776e6560008201527f72206f7220617070726f76656400000000000000000000000000000000000000602082015250565b6000613670602d83612c1b565b915061367b82613614565b604082019050919050565b6000602082019050818103600083015261369f81613663565b9050919050565b600081905092915050565b50565b60006136c16000836136a6565b91506136cc826136b1565b600082019050919050565b60006136e2826136b4565b9150819050919050565b7f4552433732313a20696e76616c696420746f6b656e2049440000000000000000600082015250565b6000613722601883612c1b565b915061372d826136ec565b602082019050919050565b6000602082019050818103600083015261375181613715565b9050919050565b7f4552433732313a2061646472657373207a65726f206973206e6f74206120766160008201527f6c6964206f776e65720000000000000000000000000000000000000000000000602082015250565b60006137b4602983612c1b565b91506137bf82613758565b604082019050919050565b600060208201905081810360008301526137e3816137a7565b9050919050565b7f4d7573742062652070726f706f736564206f776e657200000000000000000000600082015250565b6000613820601683612c1b565b915061382b826137ea565b602082019050919050565b6000602082019050818103600083015261384f81613813565b9050919050565b600060608201905061386b6000830186612d57565b6138786020830185612d57565b6138856040830184612d57565b949350505050565b6000819050919050565b6138a08161388d565b82525050565b600061ffff82169050919050565b6138bd816138a6565b82525050565b600063ffffffff82169050919050565b6138dc816138c3565b82525050565b600081519050919050565b600082825260208201905092915050565b6000613909826138e2565b61391381856138ed565b9350613923818560208601612c2c565b61392c81612c56565b840191505092915050565b600060c08301600083015161394f6000860182613897565b5060208301516139626020860182612fe1565b50604083015161397560408601826138b4565b50606083015161398860608601826138d3565b50608083015161399b60808601826138d3565b5060a083015184820360a08601526139b382826138fe565b9150508091505092915050565b600060208201905081810360008301526139da8184613937565b905092915050565b6000815190506139f181612ccc565b92915050565b600060208284031215613a0d57613a0c612b4b565b5b6000613a1b848285016139e2565b91505092915050565b600081905092915050565b6000613a3a82612c10565b613a448185613a24565b9350613a54818560208601612c2c565b80840191505092915050565b6000613a6c8285613a2f565b9150613a788284613a2f565b91508190509392505050565b7f4e487b7100000000000000000000000000000000000000000000000000000000600052601260045260246000fd5b6000613abe82612cc2565b9150613ac983612cc2565b925082613ad957613ad8613a84565b5b828206905092915050565b7f4552433732313a207472616e736665722066726f6d20696e636f72726563742060008201527f6f776e6572000000000000000000000000000000000000000000000000000000602082015250565b6000613b40602583612c1b565b9150613b4b82613ae4565b604082019050919050565b60006020820190508181036000830152613b6f81613b33565b9050919050565b7f4552433732313a207472616e7366657220746f20746865207a65726f2061646460008201527f7265737300000000000000000000000000000000000000000000000000000000602082015250565b6000613bd2602483612c1b565b9150613bdd82613b76565b604082019050919050565b60006020820190508181036000830152613c0181613bc5565b9050919050565b7f4f6e6c792063616c6c61626c65206279206f776e657200000000000000000000600082015250565b6000613c3e601683612c1b565b9150613c4982613c08565b602082019050919050565b60006020820190508181036000830152613c6d81613c31565b9050919050565b7f4552433732313a20617070726f766520746f2063616c6c657200000000000000600082015250565b6000613caa601983612c1b565b9150613cb582613c74565b602082019050919050565b60006020820190508181036000830152613cd981613c9d565b9050919050565b613ce981612bda565b82525050565b602082016000820151613d056000850182613ce0565b50505050565b6000602082019050613d206000830184613cef565b92915050565b7f4552433732313a207472616e7366657220746f206e6f6e20455243373231526560008201527f63656976657220696d706c656d656e7465720000000000000000000000000000602082015250565b6000613d82603283612c1b565b9150613d8d82613d26565b604082019050919050565b60006020820190508181036000830152613db181613d75565b9050919050565b7f43616e6e6f74207472616e7366657220746f2073656c66000000000000000000600082015250565b6000613dee601783612c1b565b9150613df982613db8565b602082019050919050565b60006020820190508181036000830152613e1d81613de1565b9050919050565b7f45524337323155524953746f726167653a2055524920736574206f66206e6f6e60008201527f6578697374656e7420746f6b656e000000000000000000000000000000000000602082015250565b6000613e80602e83612c1b565b9150613e8b82613e24565b604082019050919050565b60006020820190508181036000830152613eaf81613e73565b9050919050565b60008190508160005260206000209050919050565b60006020601f8301049050919050565b600082821b905092915050565b600060088302613f187fffffffffffffffffffffffffffffffffffffffffffffffffffffffffffffffff82613edb565b613f228683613edb565b95508019841693508086168417925050509392505050565b6000613f55613f50613f4b84612cc2565b6130b4565b612cc2565b9050919050565b6000819050919050565b613f6f83613f3a565b613f83613f7b82613f5c565b848454613ee8565b825550505050565b600090565b613f98613f8b565b613fa3818484613f66565b505050565b5b81811015613fc757613fbc600082613f90565b600181019050613fa9565b5050565b601f82111561400c57613fdd81613eb6565b613fe684613ecb565b81016020851015613ff5578190505b61400961400185613ecb565b830182613fa8565b50505b505050565b600082821c905092915050565b600061402f60001984600802614011565b1980831691505092915050565b6000614048838361401e565b9150826002028217905092915050565b61406182612c10565b67ffffffffffffffff81111561407a5761407961319f565b5b61408482546133bc565b61408f828285613fcb565b600060209050601f8311600181146140c257600084156140b0578287015190505b6140ba858261403c565b865550614122565b601f1984166140d086613eb6565b60005b828110156140f8578489015182556001820191506020850194506020810190506140d3565b868310156141155784890151614111601f89168261401e565b8355505b6001600288020188555050505b505050505050565b600082825260208201905092915050565b6000614146826138e2565b614150818561412a565b9350614160818560208601612c2c565b61416981612c56565b840191505092915050565b60006080820190506141896000830187612d57565b6141966020830186612d57565b6141a36040830185612e7f565b81810360608301526141b5818461413b565b905095945050505050565b6000815190506141cf81612b81565b92915050565b6000602082840312156141eb576141ea612b4b565b5b60006141f9848285016141c0565b91505092915050565b7f4552433732313a206d696e7420746f20746865207a65726f2061646472657373600082015250565b6000614238602083612c1b565b915061424382614202565b602082019050919050565b600060208201905081810360008301526142678161422b565b9050919050565b7f4552433732313a20746f6b656e20616c7265616479206d696e74656400000000600082015250565b60006142a4601c83612c1b565b91506142af8261426e565b602082019050919050565b600060208201905081810360008301526142d381614297565b905091905056fea26469706673582212208cd28b8bb957cf66f9427bb9687690e620f1f959663bea3983855eb66ea1293f64736f6c63430008130033",
  "devdoc": {
    "events": {
      "Approval(address,address,uint256)": {
        "details": "Emitted when `owner` enables `approved` to manage the `tokenId` token."
      },
      "ApprovalForAll(address,address,bool)": {
        "details": "Emitted when `owner` enables or disables (`approved`) `operator` to manage all of its assets."
      },
      "BatchMetadataUpdate(uint256,uint256)": {
        "details": "This event emits when the metadata of a range of tokens is changed. So that the third-party platforms such as NFT market could timely update the images and related attributes of the NFTs."
      },
      "MetadataUpdate(uint256)": {
        "details": "This event emits when the metadata of a token is changed. So that the third-party platforms such as NFT market could timely update the images and related attributes of the NFT."
      },
      "Transfer(address,address,uint256)": {
        "details": "Emitted when `tokenId` token is transferred from `from` to `to`."
      }
    },
    "kind": "dev",
    "methods": {
      "approve(address,uint256)": {
        "details": "See {IERC721-approve}."
      },
      "balanceOf(address)": {
        "details": "See {IERC721-balanceOf}."
      },
      "getApproved(uint256)": {
        "details": "See {IERC721-getApproved}."
      },
      "isApprovedForAll(address,address)": {
        "details": "See {IERC721-isApprovedForAll}."
      },
      "name()": {
        "details": "See {IERC721Metadata-name}."
      },
      "ownerOf(uint256)": {
        "details": "See {IERC721-ownerOf}."
      },
      "safeTransferFrom(address,address,uint256)": {
        "details": "See {IERC721-safeTransferFrom}."
      },
      "safeTransferFrom(address,address,uint256,bytes)": {
        "details": "See {IERC721-safeTransferFrom}."
      },
      "setApprovalForAll(address,bool)": {
        "details": "See {IERC721-setApprovalForAll}."
      },
      "supportsInterface(bytes4)": {
        "details": "See {IERC165-supportsInterface}"
      },
      "symbol()": {
        "details": "See {IERC721Metadata-symbol}."
      },
      "tokenURI(uint256)": {
        "details": "See {IERC721Metadata-tokenURI}."
      },
      "transferFrom(address,address,uint256)": {
        "details": "See {IERC721-transferFrom}."
      }
    },
    "version": 1
  },
  "userdoc": {
    "kind": "user",
    "methods": {
      "acceptOwnership()": {
        "notice": "Allows an ownership transfer to be completed by the recipient."
      },
      "owner()": {
        "notice": "Get the current owner"
      },
      "setCoordinator(address)": {
        "notice": "Sets the VRF Coordinator addressThis method should only be callable by the coordinator or contract owner"
      },
      "transferOwnership(address)": {
        "notice": "Allows an owner to begin transferring ownership to a new address."
      }
    },
    "version": 1
  },
  "storageLayout": {
    "storage": [
      {
        "astId": 29,
        "contract": "contracts/RandomIpfsNft.sol:RandomIpfsNft",
        "label": "s_owner",
        "offset": 0,
        "slot": "0",
        "type": "t_address"
      },
      {
        "astId": 31,
        "contract": "contracts/RandomIpfsNft.sol:RandomIpfsNft",
        "label": "s_pendingOwner",
        "offset": 0,
        "slot": "1",
        "type": "t_address"
      },
      {
        "astId": 2577,
        "contract": "contracts/RandomIpfsNft.sol:RandomIpfsNft",
        "label": "s_vrfCoordinator",
        "offset": 0,
        "slot": "2",
        "type": "t_contract(IVRFCoordinatorV2Plus)2726"
      },
      {
        "astId": 3753,
        "contract": "contracts/RandomIpfsNft.sol:RandomIpfsNft",
        "label": "_name",
        "offset": 0,
        "slot": "3",
        "type": "t_string_storage"
      },
      {
        "astId": 3755,
        "contract": "contracts/RandomIpfsNft.sol:RandomIpfsNft",
        "label": "_symbol",
        "offset": 0,
        "slot": "4",
        "type": "t_string_storage"
      },
      {
        "astId": 3759,
        "contract": "contracts/RandomIpfsNft.sol:RandomIpfsNft",
        "label": "_owners",
        "offset": 0,
        "slot": "5",
        "type": "t_mapping(t_uint256,t_address)"
      },
      {
        "astId": 3763,
        "contract": "contracts/RandomIpfsNft.sol:RandomIpfsNft",
        "label": "_balances",
        "offset": 0,
        "slot": "6",
        "type": "t_mapping(t_address,t_uint256)"
      },
      {
        "astId": 3767,
        "contract": "contracts/RandomIpfsNft.sol:RandomIpfsNft",
        "label": "_tokenApprovals",
        "offset": 0,
        "slot": "7",
        "type": "t_mapping(t_uint256,t_address)"
      },
      {
        "astId": 3773,
        "contract": "contracts/RandomIpfsNft.sol:RandomIpfsNft",
        "label": "_operatorApprovals",
        "offset": 0,
        "slot": "8",
        "type": "t_mapping(t_address,t_mapping(t_address,t_bool))"
      },
      {
        "astId": 4804,
        "contract": "contracts/RandomIpfsNft.sol:RandomIpfsNft",
        "label": "_tokenURIs",
        "offset": 0,
        "slot": "9",
        "type": "t_mapping(t_uint256,t_string_storage)"
      },
      {
        "astId": 6948,
        "contract": "contracts/RandomIpfsNft.sol:RandomIpfsNft",
        "label": "s_requestIdToSender",
        "offset": 0,
        "slot": "10",
        "type": "t_mapping(t_uint256,t_address)"
      },
      {
        "astId": 6950,
        "contract": "contracts/RandomIpfsNft.sol:RandomIpfsNft",
        "label": "s_tokenCounter",
        "offset": 0,
        "slot": "11",
        "type": "t_uint256"
      },
      {
        "astId": 6956,
        "contract": "contracts/RandomIpfsNft.sol:RandomIpfsNft",
        "label": "s_dogTokenUris",
        "offset": 0,
        "slot": "12",
        "type": "t_array(t_string_storage)dyn_storage"
      }
    ],
    "types": {
      "t_address": {
        "encoding": "inplace",
        "label": "address",
        "numberOfBytes": "20"
      },
      "t_array(t_string_storage)dyn_storage": {
        "base": "t_string_storage",
        "encoding": "dynamic_array",
        "label": "string[]",
        "numberOfBytes": "32"
      },
      "t_bool": {
        "encoding": "inplace",
        "label": "bool",
        "numberOfBytes": "1"
      },
      "t_contract(IVRFCoordinatorV2Plus)2726": {
        "encoding": "inplace",
        "label": "contract IVRFCoordinatorV2Plus",
        "numberOfBytes": "20"
      },
      "t_mapping(t_address,t_bool)": {
        "encoding": "mapping",
        "key": "t_address",
        "label": "mapping(address => bool)",
        "numberOfBytes": "32",
        "value": "t_bool"
      },
      "t_mapping(t_address,t_mapping(t_address,t_bool))": {
        "encoding": "mapping",
        "key": "t_address",
        "label": "mapping(address => mapping(address => bool))",
        "numberOfBytes": "32",
        "value": "t_mapping(t_address,t_bool)"
      },
      "t_mapping(t_address,t_uint256)": {
        "encoding": "mapping",
        "key": "t_address",
        "label": "mapping(address => uint256)",
        "numberOfBytes": "32",
        "value": "t_uint256"
      },
      "t_mapping(t_uint256,t_address)": {
        "encoding": "mapping",
        "key": "t_uint256",
        "label": "mapping(uint256 => address)",
        "numberOfBytes": "32",
        "value": "t_address"
      },
      "t_mapping(t_uint256,t_string_storage)": {
        "encoding": "mapping",
        "key": "t_uint256",
        "label": "mapping(uint256 => string)",
        "numberOfBytes": "32",
        "value": "t_string_storage"
      },
      "t_string_storage": {
        "encoding": "bytes",
        "label": "string",
        "numberOfBytes": "32"
      },
      "t_uint256": {
        "encoding": "inplace",
        "label": "uint256",
        "numberOfBytes": "32"
      }
    }
  }
}